S00D00004E54495F322E737265639B
S11300000C942A000C943F000C943F000C943F0085
S11300100C943F000C943F000C943F000C943F0060
S11300200C943F000C943F000C943F000C943F0050
S11300300C943F000C943F000C943F000C943F0040
S11300400C943F000C943F000C943F000C943F0030
S11300500C943F0011241FBECFE5D8E0DEBFCDBF16
S113006010E0A0E6B0E0E0E9F2E002C005900D92F5
S1130070A036B107D9F70E94FF000C9446010C94F6
S113008000004130A1F5813089F028F08230C9F0B8
S1130090833011F108952BB381E090E002C0880F02
S11300A0991F6A95E2F7822B8BBB089528B381E0F0
S11300B090E002C0880F991F6A95E2F7822B88BBF3
S11300C0089525B381E090E002C0880F991F6A95D6
S11300D0E2F7822B85BB089522B381E090E002C051
S11300E0880F991F6A95E2F7822B82BB089541110C
S11300F037C0813091F028F08230D9F0833029F173
S113010008952BB381E090E002C0880F991F6A958F
S1130110E2F7809582238BBB089528B381E090E0B9
S113012002C0880F991F6A95E2F78095822388BBE5
S1130130089525B381E090E002C0880F991F6A9565
S1130140E2F78095822385BB089522B381E090E095
S113015002C0880F991F6A95E2F78095822382BBBB
S11301600895813079F028F08230A9F08330E1F0ED
S113017024C089B390E002C0959587956A95E2F70B
S11301808170089586B390E002C0959587956A952D
S1130190E2F78170089583B390E002C09595879546
S11301A06A95E2F78170089580B390E002C0959556
S11301B087956A95E2F78170089580E0089581300B
S11301C041F028F0823039F0833039F008956ABB69
S11301D0089567BB089564BB089561BB0895813099
S11301E041F028F0823039F0833039F008956BBB48
S11301F0089568BB089565BB089562BB089560E0E7
S113020080E00E94DF006FEF80E00E94EF006FEF5C
S113021082E00E94DF0060E080E00E94B100182FBD
S113022061E080E00E94B100D82F62E080E00E948B
S1130230B100C82F67E080E00E94B100811110C0B6
S113024041E060E082E00E94410041E061E082E040
S11302500E94410041E062E082E00E944100DBCF65
S113026041E0111140E060E082E00E94410041E081
S1130270D11140E061E082E00E94410041E0C111FF
S113028040E062E082E00E944100C5CFF894FFCFD5
S9030000FC
